:020000040800F2
:10000000400C0020A90100089138000813350008B1
:1000100000000000000000000000000000000000E0
:100020000000000000000000000000009D380008F3
:1000300000000000000000009B3800089F38000806
:10004000BB01000893380008BB010008BB01000891
:10005000BB010008BB010008BB010008BB01000890
:10006000BB010008BB010008BB010008BB01000880
:10007000BB010008BB010008BB010008BB01000870
:10008000BB01000849390008593900080000000088
:10009000BB010008BB010008BB010008BB01000850
:1000A000BB010008BB010008BB010008BB01000840
:1000B000A93F0008BB010008BB010008BB01000804
:1000C00000F002F800F061F812A030C808382418D7
:1000D0002D18AC4201D100F058F80FCCA246AB4627
:1000E0000CA730CF2D1B083F3F197C427F1E544484
:1000F0002D090426F441641EAC4201D300F045F8FA
:100100000126334200D0FB1A3343984754465D46DC
:10011000DFE70000FC6000001C610000103A02D321
:1001200078C878C1FAD8520701D330C830C101D598
:1001300004680C6070470000704700000023002432
:1001400000250026103A01D378C1FBD8520700D30E
:1001500030C100D50B60704710B5662902D105F09B
:10016000F3FB10BD732902D100F082FE10BD002008
:1001700010BD1FB500F080FE04000020002105F036
:1001800073FAE0601FBD10B510BD01F071FA1146A1
:10019000FFF7EFFF04F0C0F901F089FA03B4FFF7AD
:1001A000F2FF03BC01F034FB0748804707480047D3
:1001B000FEE7FEE7FEE7FEE7FEE7FEE70448054947
:1001C000054A064B7047000045390008C100000889
:1001D00040060020400C002040080020400800207D
:1001E0004343514330B55C18010C130C0D4692B2D9
:1001F0005D4380B251432C19054655430A0C09044E
:100200004D1962415843010C00044019514130BD61
:1002100070B5054610460C4618430ED0002108461E
:10022000891A984127DA00210846491BA04118DAAB
:100230002846214600F03FF870BD002C03DA012368
:100240000022DB0707E000210846491BA04102DA33
:100250000022D243530810461946C046C0462A46DB
:1002600027E000216842A14100F025F80024404227
:100270008C4121461AE000210846491BA0410CDAB6
:1002800021460020524298410346284600F013F8C8
:10029000002440428C41214670BD002052429841CA
:1002A000002103466842A14100F005F800245242B3
:1002B0009C41234670BDFEB5044610460D461843CA
:1002C00073D0A6468C460020A41A01469D4167D3F0
:1002D0006646002701243D46B61A9D4102D31346C7
:1002E0003A462124654676462F04360C3E432D0CB3
:1002F000B61A9D4104D3150C1B042B431204103471
:10030000654676462F06360A3E432D0AB61A9D41AB
:1003100004D3150E1B022B431202083465467646A1
:100320002F0736093E432D09B61A9D4104D3150FF8
:100330001B012B431201241D65467646AF07B60804
:100340003E43AD08B61A9D4104D3950F9B002B4345
:100350009200A41C65467646EF0776083E436D087A
:10036000B61A9D411AD392185B41641C16E000181E
:10037000764665464941B71A9D410191009009D3DF
:100380006046B11A98418E4684460098019900252E
:10039000401C6941DD0752082A435B08641EE6D50C
:1003A0007246634603B0F0BDFFE72046284307D0FE
:1003B0000020C0430146C046C04622462B46F1E716
:1003C00000200146F7E700000FB41CB5074B06AA52
:1003D0007B4469460090059800F01FFD00206946A7
:1003E00000F02EFD1CBC08BC04B018476D0A0000CC
:1003F00070B50C460546012A05D02878800600D540
:10040000EA69002302E0012305E05B1C934202D26B
:10041000E05C0028F9D1A869E618C01AA861286A2A
:10042000C01828622846C046C04604E06A682078A2
:10043000A968641C9047B442F8D32846C046C04619
:1004400070BDF3B50446002081B020622046E1680B
:10045000884700287AD0252802D06268A16871E018
:10046000E16820460025884706460020E0610746EF
:10047000A0612A2E0AD0304605F0EEF8002827D0D9
:10048000B8000019303E0090866119E00298BA0069
:10049000121902C8916102902046E1688847012F35
:1004A000064617D1E06900281FDA202085431CE0AA
:1004B00000980A2180694843009980193038886182
:1004C0002046E1688847064605F0C6F80028EFD1C7
:1004D000012F0AD02E2E08D12046E1688847064613
:1004E000202005437F1C022FC3DBA069002803DA0C
:1004F0004042A06101200543E80701D01020854358
:10050000002E23D030464138192803D80120C002DC
:1005100005432036204625603146029A1546FFF7EE
:100520001BFE00280BD0012806D0ED1DE808C000F6
:10053000083002908AE709E02D1D029586E762687F
:100540003046A1689047206A401C7EE7206AFEBDC5
:1005500030B5441C03E00178401C00290DD0810710
:10056000F9D10B4BDD0104C8D11A91432940FAD0CF
:10057000001B0A0603D0C01E30BD001B30BD0A049C
:1005800001D0801E30BD0902FCD0401E30BD0000ED
:1005900001010101D2B210B513029A1813049A187E
:1005A00000F001F810BD01E004C0091F0429FBD2CE
:1005B0008B0701D50280801CC90700D002707047EC
:1005C00000290BD0C30702D00270401C491E02292B
:1005D00004D3830702D50280801C891EE3E7002232
:1005E000EEE70022DFE70000002203098B4273D30D
:1005F000030A8B4258D3030B8B423CD3030C8B4230
:1006000021D312E003460B437FD4002243088B42E0
:1006100074D303098B425FD3030A8B4244D3030B89
:100620008B4228D3030C8B420DD30902FF2212BA4E
:10063000030C8B4202D31212090265D0030B8B42CA
:1006400019D300E0090AC30B8B4201D3CB03C01AB4
:100650005241830B8B4201D38B03C01A5241430B8F
:100660008B4201D34B03C01A5241030B8B4201D37F
:100670000B03C01A5241C30A8B4201D3CB02C01AEA
:100680005241830A8B4201D38B02C01A5241430A62
:100690008B4201D34B02C01A5241030A8B4201D351
:1006A0000B02C01A5241CDD2C3098B4201D3CB01F8
:1006B000C01A524183098B4201D38B01C01A5241A7
:1006C00043098B4201D34B01C01A524103098B42AB
:1006D00001D30B01C01A5241C3088B4201D3CB0096
:1006E000C01A524183088B4201D38B00C01A524179
:1006F00043088B4201D34B00C01A5241411A00D229
:1007000001465241104670475DE0CA0F00D0494291
:10071000031000D3404253409C46002203098B4201
:100720002DD3030A8B4212D38901FC2212BA030A89
:100730008B420CD3890192118B4208D3890192110B
:100740008B4204D389013AD0921100E08909C30990
:100750008B4201D3CB01C01A524183098B4201D392
:100760008B01C01A524143098B4201D34B01C01A7D
:10077000524103098B4201D30B01C01A5241C308F5
:100780008B4201D3CB00C01A524183088B4201D364
:100790008B00C01A5241D9D243088B4201D34B007F
:1007A000C01A5241411A00D20146524110466346D6
:1007B0005B1001D34042002B00D54942704763468D
:1007C0005B1000D3404201B50449002802DC491CFB
:1007D000084000E00846C046C04602BDFFFFFF7F5C
:1007E00070477047704700000121C9050123411877
:1007F00042001B06D3185B0E0AD0C1100722D20696
:10080000891840075242D14201D5520089187047D9
:10081000090208D50146002A03D0C10FC9070020EC
:10082000704710467047420202D0002002497047CC
:10083000072109050143F4E70000F87FF0B5FF2523
:100840002D04C609C209FF2704462E400137CB09F3
:100850003E4348402A402B400746002A6BD0002BDD
:1008600069D0AA4267D0AB4265D0002800DA324690
:100870000125ED0529432C4309022002090AD21A59
:100880004B0C7F24E31A434C000A7C44E35C7D2438
:100890002404121914145B00A218884201D3521CBC
:1008A00000E0400049420C465C4324115C43DB01FC
:1008B0006415E318040A5C43C502200D0C4644434A
:1008C0006419250A5D432303EC0C0D4665430003C0
:1008D0000019EB184C42A34201D35B18401CD4050D
:1008E0002018002B07D05B00C91804D3401C002936
:1008F00001D1400840003F2189048A4209D3002ADF
:1009000008DC1106090F04D0032149074018C00F65
:10091000C007F0BD01224100120689187F2252064D
:100920009142F6D205214907C84201D59010F0BD89
:10093000FF20C005F0BD002F00DA32461648AA425B
:1009400007D2AB4205D21902090E17D0F80FC00723
:10095000F0BDFF2563002D06AB42F9D84900A9423E
:10096000F6D8AB4201D1A942F2D0A94201D100216F
:1009700001E061004908D0050843F0BD1102090EED
:10098000FBD0FF200243D005F0BD0A4601461046C9
:1009900054E70000CA5000000000C07F1F22030C73
:1009A00002D10F2200041CD0030E01D10002083A2C
:1009B000030F01D10001121F830F01D18000921E8D
:1009C000002801DB4000521ED205511802125118B6
:1009D0001922904004D3491C002801D1490849003C
:1009E00008467047C10FC90700D040420122920754
:1009F0001143D3E701218907D0E70000FFB50C467A
:100A00001E468FB003CA089009914F007D0D00D19A
:100A10006D1E002108460020C0460321099A890561
:100A20000840002A03DA8200801840080840800D40
:100A300001280A9002DD0020C0430A90089807436D
:100A40000DD0F048F049281848430714189800289A
:100A50001DD07542291E1DDD0A9842421BE01898E0
:100A6000012802D00020302104E00020F24305E0FC
:100A70002154401CB042FBDB30460022189B002171
:100A800021540F998B600A60486013B0F0BDBD1B04
:100A90006D1CDFE70A9A002900DA69420BA800F012
:100AA00071FA0BAB07CB03AB07C30899099800F0A9
:100AB000D5FA6B4607C30146D4480918002D0091AA
:100AC0000BDDD24903980A9A49424018002303A932
:100AD0000390684600F032FD08E003990A9A00236B
:100AE000081803A90390684600F0D2FC6B4607C3C0
:100AF0000004000C03D00020C043410800E0104671
:100B0000189A002A03D00022009215461EE0751E96
:100B100005D400F0B5F9303262556D1EF9D50122C9
:100B20000843079602D000227F1C04E0207830287A
:100B300001D100227F1E002A069787D01EE0112DCA
:100B400007DA00F09DF9303262556D1C02460A4307
:100B5000F5D1084303D00098002819D00EE00021F9
:100B6000681E05E0235C625C63542254401E491CED
:100B70008142F7DBA81B401E07950690079A18993B
:100B80000020A0540F98079B069A81600CC07CE758
:100B900011260020189059E7D21DF0B50D460446E5
:100BA000D10893B0C90003C90C900D9104F010FD59
:100BB00002460D98C00F01D02D2007E02068810764
:100BC00001D52B2002E04007C00F4001032A0F90FF
:100BD00001D0072A05DB03462946204600F08EF99E
:100BE0000EE12078800601D5E76900E00627284657
:100BF000652D04D0662814D0672D69D12DE0002022
:100C0000112F009001DB112300E07B1C0CAA03A92B
:100C100010A8FFF7F3FE1199002610987D1C0E9185
:100C200042E001203B460CAAC0070B900120009037
:100C300003A910A8FFF7E2FE119D12981099002653
:100C400000280E9501D1781C0D18781B02D446425D
:100C50007D1C761EE81B00903AE0012F00DA012788
:100C60000020112F009001DD112300E03B460CAA6B
:100C700003A910A8FFF7C2FE11993D46109800265F
:100C80000E91217809070BD40E99A94200DA0D467E
:100C900003A9012D04DD4A19203AD27F302A06D05B
:100CA000B84201DA011D04DA012100910FE06D1E46
:100CB000EFE7002802DC86192D1A03E0411CA94247
:100CC00000DD0D46801B401C00900120C0070B90EA
:100CD0002078000705D40098A84202DB0020C0431A
:100CE000009069460020C8720B98012102AF0337BB
:100CF000C907884225D0022010902B2011900B9814
:100D000000280BDA40420B902D20119006E00B9842
:100D100000F064FC30317F1E0B9039701099481E32
:100D200000291090F3DC0B980028F0D111987F1E59
:100D300038702088000501D5452000E065207F1E21
:100D4000387001A8C01BC01D0B900F98002800D060
:100D5000012041190098C01709180B980818A169BB
:100D6000081A401EA0612078C00602D42046C04662
:100D7000C0460F98002805D06268A1689047206A95
:100D8000401C20622078C00625D52046C046C046BB
:100D900021E0002E07DB0E98B04204DD03A8626854
:100DA000805DA16802E06268A16830209047206AF7
:100DB000761C401C20620098401E002800900AD13A
:100DC00000F05AF8C06862680168405CA16890470A
:100DD000206A401C206228466D1E0028D9DC07E0EE
:100DE00062683878A1687F1C9047206A401C2062A6
:100DF0000B99481E00290B90F2DC2046C046C046E5
:100E0000032042E601FCFFFF104D0000E1DFFFFF81
:100E100001694A1C02610878704700B58FB00291E1
:100E200000210591054901937944039111460490ED
:100E30006846FFF706FB0FB000BD0000E5FFFFFFAF
:100E40000A681070521C0A60704710B54369002B85
:100E500002D0C046C04601E0FFF7CAFA012010BD2B
:100E60001278014624310A7000224A700122ECE710
:100E700011680022D243E8E7004870474000002094
:100E80000B4670B5024689078008084319469D083D
:100E9000141AA94125090807054308092C194841D6
:100EA000250A01060D43010A2C194141200C0D04AD
:100EB00028430D0C00194D41002140194D41C00837
:100EC00069070843E908840F8D002543840024182E
:100ED0004D4124196D41121BAB4107E00925ED433B
:100EE0002C11521963410024401C61411C460A2503
:100EF0000026551BB441F1D270BD0000F8B51F4665
:100F0000044601230068DB02032601461840072A35
:100F100005DB002801D017A506E017A504E000288E
:100F200001D016A500E016A5102081432160A0691C
:100F3000C01E002FA06101D0401EA0612046C04607
:100F4000C046002F09D038466268A1689047206AE1
:100F5000401C2062C01C206206E0206AFAE762683A
:100F60002878A1686D1C9047761EF8D22046C046AE
:100F7000C046F8BD4E414E006E616E00494E4600BF
:100F8000696E6600F7B516468AB0334878446C46F9
:100F900003467C33C06F5A689B680DC42E48784462
:100FA000763003AC0DC80DC43720C00108183721B6
:100FB0001B30FFF727FB05460C46803D1B3C02D546
:100FC0006442012000E000200027099010E0E007C3
:100FD0000CD00C2020497843794432464C394118D2
:100FE0006846012300F054FA6B4607C364107F1C67
:100FF000002CECD1184F7F442E3F16E0E80712D0AA
:101000002001C0190EC80691089307920068F042AB
:1010100001D1981908903246012306A903A800F0CF
:1010200037FA03AB07C36D10641C002DE6D1099895
:10103000002806D032466946012303A800F07EFA54
:1010400005E001233246694603A800F021FA0A9B15
:1010500007C30DB0F0BD0000084A00000346400081
:101060000A4610B5400D0BD00121C9070F24A40278
:1010700000191C0364082143540D2143D20207E0E8
:1010800000210120F2E7D40F490021435200401E05
:101090000029F8DADB0FDB07184310BDFFB50D465A
:1010A000144685B04868516804F07AFA00910190BE
:1010B000A868A16804F074FA02910390A8686168B6
:1010C00004F06EFA029A12188242029201D20120B2
:1010D00000E00020019A0B18D2180028019202D0DB
:1010E0008A4202D903E08A4201D2012000E00020B6
:1010F0000099081800906868A16804F051FA029AF3
:1011000012188242029201D2012000E00020019ACE
:101110000B18D2180028019202D08A4202D903E0AB
:101120008A4201D2012000E00020009908180090B6
:101130002868216840004900400849084018FA49D9
:10114000471814E001994000C90F08430090019826
:1011500002994000C90F084301900298039940008A
:10116000C90F08430290039840007F1E0390009827
:101170000028E7DA0898002801D0EC4E00E00026AD
:10118000B74201DA012000E00020002804902AD0B4
:10119000F71BF806C00E15D0029B2021091A039AEE
:1011A0008B401A430392029A019BC2408B401A4320
:1011B0000292019A009BC2408B4000991A4301920F
:1011C000C14000917B110DD06F460320C11A03D599
:1011D00000218200B95003E08A008100BA587A5099
:1011E000401EF3D5374603980299002800D001200D
:1011F000014308980291002808460CD0002800D02E
:1012000001200199019A490508430121D20AC90226
:10121000D202019200E001210E9B0122D207012B94
:1012200002D0002B03D013E0002807D120E0904229
:1012300004D890420CD1019B0B4209D0019B591854
:10124000019105D10099491C009101D17F1C0092A8
:1012500000280DD0102108460020C0460498002820
:1012600006D00F98002803D0082108460020C04669
:1012700028682168019B009A4840C10F0598C9075A
:1012800039430EC009B0F0BDFFB587B0099A089880
:1012900008995368926840688968964600220393CB
:1012A00017469446089A12685300099A5B08126818
:1012B000520052089A1A9E4BD4180A9A002A01D05A
:1012C000352200E0402206920022012315460492B6
:1012D000DB07059324E0002D05D175460346039EE8
:1012E0004D1BB34109D375466646039B491B049DBC
:1012F0009841059B7519AC465F4163463B4308D056
:10130000059B049EDD0776082E435B080496059333
:1013100001E0521E641EC50FED0749184041521CE2
:10132000069B9A42D7DB002D04D17546039A6B1AAF
:10133000824101D203200CE0039A0B466B404240ED
:10134000134303D0014303D0012002E0022000E058
:101350000020614601910021009702910A9900291D
:1013600005D0614640020143704B019102E08007C5
:10137000002302909C4201DA012000E000200700D7
:101380003AD01A1BD006C00E15D0029D2021019C18
:10139000091AC5408C402543029C8C4000D0012492
:1013A0002543019C0295009DC4408D4000992C432B
:1013B0000194C140009154111DD06D4602210022BC
:1013C00002290CD10320001B07E0002804DB860063
:1013D000AE59002E00D00122401C0328F5DB081B6B
:1013E00002D588002A5004E08000285810438A0063
:1013F000A850491EE3D51C460A98002802980CD034
:10140000002800D001200199019A490508430121D3
:10141000D20AC902D202019200E00121109B0122EE
:10142000D207012B02D0002B03D013E0002807D1F4
:101430001FE0904204D890420CD1019B0B4209D08E
:10144000019B5918019105D10099491C009101D1C6
:10145000641C009200280CD0102108460020C046D1
:10146000002F06D01198002803D00821084600203C
:10147000C04608980999019A009B0068096848408D
:10148000C10F0798C907214382600AC00BB0F0BDA5
:1014900000B585B0019300920A460146002302A8D8
:1014A000FFF7FCFD02A807C805B000BDFFB50A465E
:1014B0001F4685B00799019301230091014602A8B8
:1014C000FFF7ECFD02990398049ECA0F4900D2076A
:1014D00000920F22490892028C1A0021002800DB9A
:1014E0000C46450013486D08844214D3079A002A1D
:1014F00004DA441E0026104DF64302E004460D4671
:101500000E46102108460020C046002F03D00421BB
:1015100008460020C0462005E90A08430099084310
:101520006905F20A1143ADE602C0FFFF013C00006D
:10153000FF3F0000FF070000FFFFFF7F00B585B001
:10154000019300920A460146002302A8FFF79CFE81
:1015500002A807C8A8E7FFB50A461F4685B0079945
:10156000019301230091014602A8FFF78DFE029925
:101570000398049ECA0F4900D20700920F2249081F
:1015800092028C1A0021002800DB0C46450011480D
:101590006D08844214D3079A002A04DA441E0026F8
:1015A0000D4DF64302E004460D460E461021084656
:1015B0000020C046002F03D0042108460020C0466A
:1015C0002005E90A0843009908436905F20A114316
:1015D00058E60000FF070000FFFFFF7F014680087C
:1015E000081A02091018020A1018020C1018C00874
:1015F000820012185200891A01E0401C0A390A2997
:10160000FBD2704710B5FF231B0644009C421DD837
:101610004C009C421AD80346124A0B4307D4401A86
:1016200002D3EFF3008010BDEFF3008010BD081A65
:1016300003D3EFF30080904305E0EFF30080012136
:101640009043C907084380F3008810BD0D231B0495
:101650001A4204D01146002000F08AF810BD00F0B4
:101660009FF810BD00000090004870472000002047
:101670007546FFF7F9FFAE46050069465346C008B8
:10168000C000854618B020B5FEF798FD60BCB64690
:1016900000260027C0C5C0C5C0C5C0C5C0C5C0C5DF
:1016A000C0C5C0C5403D490849008D46704710B5CA
:1016B0000446C046C0462046FEF770FD10BD00003F
:1016C00082078B079A423FD170B5920F0AD003244C
:1016D00002780B78401C491C002A33D09A4231D141
:1016E0002042F5D1214EF40104C808C9951B954349
:1016F000254018D19A420FD104C808C9951B9543BB
:10170000254010D19A4207D104C808C9951B9543BA
:10171000254008D19A42E7D012BA1BBA01209A425A
:1017200000D2404270BD12BA1BBA2DBA1824100064
:10173000E0401900E140401A05D12E00E64002D1F8
:10174000083CF4D1D01A70BD02780B78401C491CBB
:10175000002A09D09A4207D102780B78401C491C14
:10176000002A01D09A42EFD0D01A7047010101013E
:10177000C80212D54803400F002804D0C803C04354
:10178000012188407047EFF3008000010009032128
:101790000907084380F30088704700207047000065
:1017A00010B5024800F004F810BD00000000C07F32
:1017B00010B50C461107090F092904D00A290AD0CF
:1017C00008290CD104E011460820FFF7D1FF06E0FC
:1017D000510606D501E0510601D50120C00721467A
:1017E00010BDD10607D501010909CC084907000E33
:1017F0000006044309E0410F20024907000A0143A3
:10180000200E00061D22D14101430846E7E70000F3
:1018100001491820ABBEFEE726000200704710B554
:10182000014624314A78022A14D1026813680E2432
:10183000A343136013680124A3431360026C406C3C
:101840001C2303402046984050604C70002000222A
:101850000A7010BD0422C263012000220A7010BD6C
:10186000B0B5014624314A78022A18D102681368BB
:101870000E24A343136013680125AB431360026C6D
:10188000436C1C241C402B46A340536000240C7066
:101890004D70816B002900D088472046B0BD0421DF
:1018A000C1630120B0BD0000B0B5044600F0D4F81B
:1018B0000546601C02D004480078041900F0CCF8FA
:1018C000401BA042FAD3B0BD08000020F0B58AB09A
:1018D00007900B68002B00D1B3E00E465A480799D9
:1018E000814201D0062000E005200B210907079A5C
:1018F00052180A21CA410192052A00D30190079883
:1019000020300090002215461746029619460BE03B
:1019100021434E4801607F1C31680846F840121D83
:10192000AD1C002800D18CE001231846B8400140CE
:10193000F1D0059306920391324603263146A94021
:101940000495CD4351680C463440631E012B089525
:10195000099110D807998B682B40D668049DAE403A
:101960001E438E60099AD306DB0FBB404E68864348
:101970001E434E6006E0032C049D03D13446029EB4
:10198000069A1DE00799C868089A1040029EB3683D
:10199000AB400343CB60022C069A11D11C201040AF
:1019A0000F218140FB089B00009AD4588C43316979
:1019B00081402143D150069A706803240990044065
:1019C000AC4007990868089B1840204308600998B4
:1019D0008003800F059B9ED01D490868184308604E
:1019E0000C2010400F21814003233C469C43194B9F
:1019F000E3588B43019981401943164821501348FD
:101A000081687068C30202D5039C214301E0039CF6
:101A1000A1430E4B9960D968830201D5214300E0B0
:101A2000A1430A4BD9605968830301D5214300E0E3
:101A3000A143064B59601968C00300D568E7A1436C
:101A400067E70AB0F0BDC046001C0050000401402A
:101A50003410024008000140014800687047C04649
:101A600038060020B0B50246034640335C780220B9
:101A7000202C17D11C78012C14D024205870106809
:101A800002680124A24302602203056895430560B1
:101A900002680A4302600168214301600020187057
:101AA00020215970B0BDB0B50246034640335C7882
:101AB0000220202C17D11C78012C14D0242058701F
:101AC000106802680124A24302600F221202056816
:101AD0009543090229430160016821430160002008
:101AE000187020215970B0BDF0B581B0002822D007
:101AF000054640356978002905D100212970044642
:101B000000F064FA20462421697001680B68012204
:101B100093430B600F231B0644689C430C618C6845
:101B2000194B1C408C608468C668012E06D1D60310
:101B300034438C600AE0012001B0F0BD2127BF02D0
:101B40003C438C60022E01D1D4024C604C680F4E95
:101B500026434E60CC681C40CC60036944691C433A
:101B600083691B022343CB60C369046A1C430C6076
:101B70000B6813430B600021416420226A700163EB
:101B80000846A97001B0F0BDFF7FFFFF0080000292
:101B9000F0B589B004460646403675780220202DFF
:101BA00009D10E9F002F08D00F9D002D05D005955F
:101BB0003578012D06D109B0F0BD012041026164E4
:101BC00009B0F0BD04930392069101200790307094
:101BD000FFF742FF08902068816909042ED4109A0B
:101BE000222171704021B1700025656405996185DD
:101BF000676217466563EF49069A0A400499C9B2BD
:101C00000904069289184268EB4B1A408918012290
:101C10000792520389184160204605973946089F6C
:101C20003A4601F0E2FD00283CD102952068049973
:101C300001291ED10399C9B2816229E00798C50321
:101C400002E081692942CAD0FFF706FF0899411ACC
:101C500020681A29F5D381692942F2D0606C2021CD
:101C600008436064717000203070B070079809B04C
:101C7000F0BD0399090A8162204605993A4601F0B0
:101C8000B4FD0028029D0DD121680398C0B288627E
:101C9000059B009740210022204601F0F9FC002816
:101CA000029D03D03570079809B0F0BD608D000A21
:101CB00007D020684168C04A1140021DFF20394BFF
:101CC00009E0608D22685368BB490B40C1B209042A
:101CD0001943121D324B069D19432943116020857B
:101CE000089D12E0608D208521684A68B54B1A4036
:101CF000C0B20004104301225206091D069B104386
:101D000018430860608D002833D000950421002717
:101D100020463A46059B01F0BBFC002826D1606AAC
:101D20002168496A0170608D401E6085606A401CB0
:101D30006062208D401E2085618D0029E2D0000464
:101D4000E0D10095802100222046059B01F0A0FCF7
:101D500000280BD1608D000AC4D0FF2020852168A7
:101D60004868984A1040091D954AC7E7079809B086
:101D7000F0BD204605992A4601F0F4FC002807989A
:101D800000D018E720682021C16142688E4B1340C3
:101D9000436071703770B770384609B0F0BDC04607
:101DA000002400020024FF01F0B589B00446074674
:101DB00040377D780220202D09D10E9E002E08D0BC
:101DC0000F9D002D05D007953D78012D06D109B056
:101DD000F0BD01204102616409B0F0BD0396059396
:101DE00002920891012006903870FFF735FE0646F2
:101DF0002068816909042DD41099049121217970FA
:101E00004021B97000256564079961850399616275
:101E100065636849089A0A400599C9B2090408929D
:101E200089184268644B1340C918644A8918416094
:101E300020460499324601F0D8FC00283ED1049A8D
:101E400007952068059901291ED10299C9B28162BE
:101E5000134629E00698C50302E081692942CBD0E8
:101E6000FFF7FAFD811B20681A29F6D38169294200
:101E7000F3D0606C202108436064797000203870D2
:101E8000B870069809B0F0BD0299090A816220462F
:101E90001146324601F0A9FC0028079D0ED12168A9
:101EA0000298C0B28862049B0096802100222046DE
:101EB000059201F0EDFB0028079D03D03D700698C8
:101EC00009B0F0BD01204506618D090A3C4B3D4932
:101ED0000690079506D020680A4641681140021D09
:101EE000FF2008E0608D226853680B40C1B20904EE
:101EF0001943121D2B46089D194329431160208563
:101F0000049D11E0608D208521684A682D4B1A40A0
:101F1000C0B200041043091D079A089B10431843E0
:101F20000860608D00282FD020462946324601F0F7
:101F30005CFC002825D12068616A0A788262608D85
:101F4000401E6085481C6062208D401E2085618D8A
:101F50000029E6D00004E4D100968021002220462A
:101F60002B4601F095FB00280BD1608D000AC9D0EB
:101F7000FF20208521684868124A1040091D104A38
:101F8000CBE7069809B0F0BD20462946324601F05D
:101F9000E9FB0028069800D019E720682021C161DC
:101FA0004268094B13404360797005983870B870E7
:101FB00009B0F0BDFF030000009800FC0020000104
:101FC0000000FF01009C00FC00E800FE10B586B098
:101FD0000021059104910391029101910068114A39
:101FE000904201D006B010BD0F4C20680222104371
:101FF000206020681040009004200590039112207A
:10200000029003200490000201900098074801A963
:10201000FFF75CFC01204005E1680143E16006B088
:1020200010BDC046005400402C1002400004005077
:102030001D48007802490A68101808607047C046B9
:102040003806002080B50848016840220A43026033
:10205000032000F00BF8002801D0012080BD00F023
:1020600027F8002080BDC0460020024070B504461D
:102070007D20C0000C4E317803F097F901460B48E3
:10208000006803F092F900F099FD0125032C08D8AF
:10209000002806D10025E84321462A4600F02AF808
:1020A0007460284670BDC04608000020180000205B
:1020B00010B50948016801242143016021074268E5
:1020C0000A434260002120460A4600F013F82046E9
:1020D00000F004F810BDC04634100240002805D4BA
:1020E0001F21084001218140014801607047C0461E
:1020F00000E100E0002805D40322034693430A4A86
:102100009A1803E00C220240064BD2188007C00E3A
:102110008901C9B28140FF23834010689843084376
:102120001060704714ED00E000E400E0704700002C
:10213000B0B5054C2068C00304D501200504FFF7A5
:10214000F5FF2560B0BDC04614040140F0B589B06C
:10215000066801252F02EA0211462031874B0E4204
:102160007CD0059208902907143B18680840049019
:1021700002D118680843186001930291804C2068CE
:10218000384211D1206838432060FFF765FC0646CD
:102190002068384208D1FFF75FFC801B6428F7D91C
:1021A0000325284609B0F0BD0326340573484C3892
:1021B000069001682140089B58680246039422401B
:1021C0000096340491420AD102462240A242069E61
:1021D0000DD19A68039B1A40914205D107E0014650
:1021E0002140A142069E02D131688903D9D4634BB4
:1021F00059680794214021D0079A1040814203D0AA
:102200000898007880060AD408988068079A1040D9
:10221000814213D008980068059908420ED058688A
:10222000E9045A680A435A605A688A435A60014668
:10223000079A91435960384200D08CE008980668AC
:1022400005990E42079C59D1B1066DD40499002915
:1022500004D1019C2168029A91432160F1070DD1BC
:10226000B10713D4710719D4310720D43E4227D1C6
:1022700071062ED40025310693D535E01968032266
:102280009143C2680A431A60B107EBD519680C2262
:10229000914302690A431A607107E5D50321890257
:1022A0001A688A434169114319603107DED5032159
:1022B00009031A688A438169114319603E42D7D0E5
:1022C000032109041A688A43C16911431960710620
:1022D000D0D5012189061A688A43416A11431960E1
:1022E0000025310600D45CE703218A041968914374
:1022F000006A08431860284609B0F0BD826811469C
:102300002140A1420BD10398024003231B05069DE7
:102310002C689C43194B089814432C60079C5A68FE
:102320000A435A60B10691D5426811462140A14244
:102330000AD10398024003231B05069D2C689C4389
:102340000E4B089814432C605A680A435A6004994B
:10235000002983D17DE7FFF77FFB0546884C074BBB
:102360005868800500D569E7FFF776FB401BA0425F
:10237000F5D9009D284609B0F0BDC0464C1002407A
:1023800000700040F0B583B0002846D00E460290A1
:102390007A480068012101910840B04216D277497D
:1023A00008680125A84330430860754CFFF754FBCB
:1023B0000746724800682840B04207D0FFF74CFB40
:1023C000C01BA042F5D9032003B0F0BD029D2868D0
:1023D0008107794C05D52168F0229143AA680A4308
:1023E0002260C0071CD16548006801273840B04210
:1023F00024D962490868B8430860614CFFF72CFB98
:1024000005465E480068C00718D0FFF725FB401B53
:10241000A042F6D9032003B0F0BD012003B0F0BD07
:102420006A6821460C390968012A34D0032A2DD064
:10243000022A72D1890301982BD52FE0029B1868DC
:1024400041075D4C06D50721090222688A43D968F5
:1024500011432160000707D50720C002216881438E
:102460001869C0000843206021680807820F6D4882
:102470007A441279520097440154725B3804214621
:10248000083909680904490F884068E08901019802
:1024900004D403B0F0BD49070198FAD521680320A0
:1024A0000190814311432160FFF7D6FA074668681F
:1024B000334D03282BD002281ED001280AD12068D2
:1024C0000C21014004298ED0FFF7C6FAC01BA84298
:1024D000F5D909E020680007800F00D183E7FFF7F6
:1024E000BBFAC01BA842F5D9019803B0F0BDFFF7B5
:1024F000B3FAC01BA842F7D820680C210140082974
:10250000F5D170E7FFF7A8FAC01BA842ECD8206805
:102510000C2101400C29F5D165E789050198B8D552
:10252000BCE720460C380068C00612D53F4816E0CC
:102530008A02120F3C4B9A5C0902890F491C2368DE
:10254000DB0309D420460C380068C00603D43848A1
:1025500002E0374803E03548504302F026FF216887
:102560000906090F074A515CC8401249086006482D
:102570000068FFF77BFD03B0F0BDC04600200240BD
:10258000881300002C5A00080C000020094800683D
:10259000094909684905490F084A515CC840704714
:1025A00004480068044909688904490F034A515CDA
:1025B000C8407047180000200C1002403C5A000828
:1025C00010B5844AD1680807830F16487B441B79ED
:1025D0005B009F440108070D0120000451680904B5
:1025E000490F884010BD1068C00613D50F4810BDB4
:1025F0008B021B0F0C4CE35C0902890F491CD46849
:10260000E40303D41068C00606D40948584302F016
:10261000CCFE10BD064810BD0448584302F0C5FE6C
:1026200010BDC04600127A00B061000800093D00EC
:102630000024F400F0B589B0002856D0654EF1684A
:102640000C220A400692012105910904F7680491C1
:102650000F4007900078C00710D00698082806D0D1
:1026600006980C2800D0D7E0002F00D1D4E03068C5
:10267000800303D507984068002852D00798007857
:10268000800735D407980078C0064DD407980078A5
:10269000000767D407990878400700D59CE00878C0
:1026A000800600D51FE10798846A002C1AD006988E
:1026B0000C2800D068E1012C33D0F068049A024065
:1026C000079BD96A8A422CD10F21890401401A6BD9
:1026D000914226D1032189050840596B884205980B
:1026E00000D055E2002009B0F0BD012009B0F0BDD6
:1026F000079BD868810604D53168202211433160D8
:1027000090430699042906D006990C2900D0A9E027
:10271000002F00D0A6E0316800283AD104221140F1
:1027200037D0059809B0F0BD012044020699002970
:1027300000D1ADE03168079AD2690002002A00D1C9
:1027400001E101433160FFF787F905463068204217
:1027500000D008E1FFF780F9401B0228F6D90320DA
:1027600009B0F0BD306D07994969002900D1D9E061
:10277000012108433065FFF76FF90546306D80078A
:1027800088D4FFF769F9401B0228F7D9032009B064
:10279000F0BD1F21090272688A43196909021143B9
:1027A000716031680922914301433160F168080783
:1027B000820FF8485200C0467A44928852009744EB
:1027C00003002401D8013A0170680004410F049805
:1027D0008840CEE10010024001221107B06B084092
:1027E000029002D1B06B0843B063019103921402CE
:1027F000EF4F3868C00523D4386820433860FFF7AE
:102800002BF90546386820421AD1FFF725F9411BFC
:1028100003206429F6D9BBE1306807994968049A16
:10282000914209D005221204914200D0CDE00599D1
:102830008904084330603068049908433060D3E06D
:1028400007988168306D039B5F02002900D12AE15F
:1028500005221202914200D11FE1A14200D036E1CF
:10286000204339E13168002800D1D3E009229143A7
:1028700001433160FFF7F0F805463068400700D5A6
:1028800001E1FFF7E9F8411B03200229F5D97FE1B7
:102890003168214204D00799C969002900D177E144
:1028A0000720400371688143079B586A01437160A8
:1028B000FF21090672688A43196A0906891871603E
:1028C000400B04998140F0680006000FB54A105C87
:1028D000C140B5480160B5480068FFF7C7FB002854
:1028E00000D055E1D2E6B06807998969002900D186
:1028F000B3E001210843B060706B08437063480384
:10290000AD490A6802430A60FFF7A6F80546B068B9
:10291000800700D5C7E6FFF79FF8411B0320022977
:10292000F5D935E1012188433065FFF795F8054673
:10293000306D800700D4ADE6FFF78EF8411B032011
:102940000229F5D924E181433160FFF785F8054676
:102950003068204200D199E6FFF77EF8411B032042
:102960000229F5D914E10720400371688143079AD1
:10297000506A08437060FF20000671688143106A46
:1029800000064018706081E60120010632688A4323
:1029900032604706FFF760F80546022C0AD130681E
:1029A000384200D1C3E0FFF757F8411B032002294A
:1029B000F5D9EDE03068384200D193E6FFF74CF8E6
:1029C000411B03200229F5D9E2E0049A90433060CC
:1029D0003068104008900898059880043268824357
:1029E0003260002900D192E005984404FFF734F8E2
:1029F00005463068204200D040E6FFF72DF8401B26
:102A00006428F6D9032009B0F0BD3068C0067CD533
:102A10006248AEE0012081433160FFF71DF80546B2
:102A20003068400700D42DE6FFF716F8411B03205D
:102A30000229F5D9ACE08A02120F574B9A5C0902C1
:102A4000890F491CF368049C234200D08EE0306853
:102A5000C00600D589E0524888E001218843B06073
:102A6000480355490A6882430A60FEF7F5FF0546A8
:102A7000B068800700D416E6FEF7EEFF411B032086
:102A80000229F5D984E01F2000027168814307986C
:102A90000069000208437060F4E59902084330655C
:102AA000306D204318E0A04330659802316D8143BA
:102AB0003165FEF7D1FF05463E4C306D38421AD0E5
:102AC000FEF7CAFF411B0320A142F6D960E0A043F4
:102AD00030659902306D88433065FEF7BDFF0546CD
:102AE000344C306D384206D1FEF7B6FF411B03204F
:102AF000A142F6D94CE002980028079900D0CEE513
:102B0000B06B019A9043B063C9E5254831E0059860
:102B10004404FEF7A1FF05463068204200D1ADE530
:102B2000FEF79AFF411B03206429F5D930E0FD2010
:102B30000004F1688143079B2C330DCB08431043FD
:102B40001843F0602748401C316801433160FEF7AC
:102B500083FF04463068384200D0C3E5FEF77CFFAF
:102B6000011B03200229F5D912E00C48504302F062
:102B70001CFCF1680906090F0A4A515CC8400A4961
:102B800008600A480068FFF771FA002800D179E56B
:102B900009B0F0BD00127A00B061000800093D00E4
:102BA0000024F4002C5A0008180000200C0000201B
:102BB000007000408813000020000140401E010EFC
:102BC00001D0012070470749074A50600748036851
:102BD0000B400321890759180160002090600721EC
:102BE00011607047FFFFFF0010E000E020ED00E003
:102BF00010B53822825C012A01D1022010BD0246A4
:102C0000383202235370006843687024A3430C6871
:102C10001C43836844605B4CA04207DC0124A4078A
:102C2000A04209D05A4CA04206D00AE0564CA0421D
:102C300002D0564CA04204D18024A34349681943D2
:102C40008160002010700121517010BDB0B50028C6
:102C500019D0054638356978002905D10021297039
:102C6000044600F049F820460221697001680C68AA
:102C7000444B994209DC0122920791420BD0444A0D
:102C8000914208D015E00120B0BD3F4A914202D0E8
:102C90003E4A91420DD17022944382682243994268
:102CA0000ADC01239B0799420CD0394B994209D089
:102CB00020E022469942F4DD334B994202D0334B57
:102CC000994217D103231B029A43036913438022BD
:102CD000934342691A430A60C268CA6240688862C4
:102CE00001204861A871A870E87028716871687047
:102CF0000020B0BD1346EAE710B500687449884269
:102D000005D07449884210D11224202001E01124FA
:102D1000102006490A6802430A60002120460A463C
:102D2000FFF7E8F92046FFF7D9F910BD3810024047
:102D30003921415C012912D10146393102220A7040
:102D40000068C26801210A43C2600E4A904208DC52
:102D50008A0790420BD00E4A904208D00CE0012026
:102D60007047094A904202D0084A904204D18268D2
:102D700007231340062B02D002680A43026000209A
:102D80007047C046FF0701400014014000080140A1
:102D9000000400407047B0B504464020C543206899
:102DA0000169890717D5C168890714D529463E31BD
:102DB0000161012121768069800703D02046FFF759
:102DC000E9FF05E0204600F071F8204600F06FF8BA
:102DD0000020207620680169490718D5C168490795
:102DE00015D529463C310161022121768069800593
:102DF000800F03D02046FFF7CDFF05E0204600F00E
:102E000055F8204600F053F800202076206801692C
:102E1000090717D5C168090714D52946383101615A
:102E200004212176C069800703D02046FFF7B2FF56
:102E300005E0204600F03AF8204600F038F800207F
:102E4000207620680169C90618D5C168C90615D55C
:102E500029463031016108212176C0698005800F43
:102E600003D02046FFF796FF05E0204600F01EF84D
:102E7000204600F01CF80020207620680169C90770
:102E800009D0C168C90706D029463F3101612046F3
:102E900000F00EF820680169490606D5C1684906A8
:102EA00003D50561204600F017F8B0BD70477047A4
:102EB00000680749884205D00649884205D1034881
:102EC000401C00E00148012101707047880000208B
:102ED0000010004000140040704770477047704772
:102EE000F0B587B003460168CD690C6820200494D2
:102EF000029004406242624101200690C7023E46B1
:102F00002F362E40203E701E864116438E6857D0C5
:102F100003938033019738460F3005950542049D91
:102F200007D0E7482840012732463A40101800D021
:102F30009BE0102428462040474247410398006EFA
:102F40000128069A44D00598C006069F45D4002F54
:102F500046D00124A0050640724272410598C00285
:102F6000069E039800D51646002E00D18CE08022E4
:102F70002A4051425141059B1A06069A00D50A463D
:102F8000002A00D190E140210D406A426A415B066F
:102F900000D50692069A002A00D009E1EFF31085C9
:102FA00084F31088026813688B43136085F31088DC
:102FB0000021C1660299C16700F0AAFA07B0F0BD0E
:102FC000996E002900D1F3E01846884707B0F0BD9C
:102FD0003A460598C006069FB9D51746002FB8D1C6
:102FE000039F3D4658350C628868400652D4698874
:102FF00028886A88002A00D1DAE0884200D1D7E028
:103000000693EFF31083012282F3108809256D01E6
:103010003E68059139463768AF43376083F31088BF
:10302000EFF3108382F310880D68AE689643AE60AC
:1030300083F31088029B069D2B6000238B660B6632
:10304000EFF3108382F310880A681568A5431560B2
:1030500083F3108802224A66059A801A82B20846D3
:103060001146FFF73AFF07B0F0BD3802284046424C
:1030700046410598C00706985CD100285DD00097AE
:10308000059DA80761D469E022050A62FFF726FFC3
:1030900007B0F0BD786F006841688AB2002A00D19D
:1030A00086E01E462B889A4200D381E06980006842
:1030B000800634D4EFF31081012080F31088824A17
:1030C000203206963B681E6816401E6081F3108809
:1030D000EFF3108180F310883A689368834393601C
:1030E00081F31088EFF3108180F310883A689368B9
:1030F0004026B343936081F310880299069A1160C9
:1031000000213966EFF3108180F310883868026877
:10311000A243026081F31088786FFEF780FB0220E3
:10312000786628886988401A81B23846FFF7D5FE4C
:1031300007B0F0BD30460028A1D10F62586838436F
:1031400058600097059DA80708D5002A06D00220E0
:1031500008625868042606435E60059D6807019F63
:1031600007D5002A05D004200862586802260643C5
:103170005E6022435642564105980007069A009D1C
:1031800000D53246002A04D1082008625A6802435A
:103190005A60A806049D05406A426A41059E3E4267
:1031A000069D07D1002D08D058680028039D0DD139
:1031B00007B0F0BD1546002DF6D10F625868029A8F
:1031C0001043586058680028039DF1D002980640CB
:1031D00062426241002E00D006920698002809D172
:1031E000AA6E002A06D02C4628461D4690472B463C
:1031F00025462168586828220240886840210840F6
:1032000080181E4606D12846FFF769FE0020706030
:1032100007B0F0BDEFF31080009F87F310880922FC
:1032200052012B681C6894431C6080F31088EFF3F4
:10323000108087F310882A689368BB43936080F3FB
:103240001088286E01280BD1EFF31080009A82F3CA
:1032500010882A6813681024A343136080F3108831
:103260000298306000202866A866286880684006BA
:1032700021D5EFF31080009A82F310882A689368B2
:103280008B43936080F31088696F002913D00D4839
:1032900088630846FEF7E4FA002800D188E7686FE3
:1032A000816B884707B0F0BDC16E002900D17FE770
:1032B000884707B0F0BD2846FFF711FE07B0F0BD04
:1032C000200100040D3B0008DFFEFFFFB0B5002821
:1032D00017D00446C06F002805D178200021215462
:1032E000204600F02BF82420E067206801680125C3
:1032F000A9430160204600F015FC002803D02846B1
:10330000B0BD0120B0BD606A002802D0204600F0A8
:103310002BFB0920C00221684A6882434A60886802
:103320002A22904388600868012202430A602046EE
:1033300000F084FB05462846B0BD0000B0B586B05D
:1033400000240594049403940294019400681549A0
:10335000884201D006B0B0BD01204104124AD368B2
:103360000B43D36011680143116011680140009163
:1033700004200590032004900394022002900C2066
:10338000019000980520000701A9FEF79FFA1C256F
:10339000284621462246FEF7ADFE2846FEF79EFE51
:1033A00006B0B0BD004400402C100240F0B585B01E
:1033B00004930646C06F202810D1012000290BD0AD
:1033C000002A09D001200503B368AB4209D1CB071D
:1033D00007D03369002B04D105B0F0BD022005B041
:1033E000F0BD0191344650343046843000210291C2
:1033F00001602120F0671746FEF72EFB03906780DF
:103400002780B068A84202D13069002801D0019D10
:103410000AE000250198029006E028783168886269
:103420006D1C6088401E60806088002816D004985B
:1034300000908021002730463A46039B00F0E4FCD0
:1034400000281AD1002DE8D1029A10880D490840B1
:1034500031688862921C02923D46E2E7049800902F
:10346000402100223046039B00F0CEFC2021F16772
:103470000028B1D0032005B0F0BD2020F067032064
:1034800005B0F0BDFF010000F0B581B0C36F202B87
:1034900012D1012300290CD0002A0AD0856801240A
:1034A0002603B5420CD1CB070AD00369002B07D104
:1034B0002346184601B0F0BD0223184601B0F0BD06
:1034C000009407465037044684347A8000232360F2
:1034D0003A80C1642121C167B54202D10169002946
:1034E00010D00A49009AC166EFF3108182F3108868
:1034F0000068026880241443046081F31088184631
:1035000001B0F0BD0049EDE7513D0008B13D0008B4
:103510007047FEE7F0B585B00E4604464030049093
:1035200020688169C90606D400210F4601258269F9
:10353000D30543D446E01021C1618169890635D4A1
:10354000711C30D015460120002E6AD186030390ED
:10355000C703FEF781FA2068426804998978836975
:103560003B4209D0324007D1202905D04168314380
:103570004160FEF771FA054620688169890605D425
:10358000FEF76AFA401B1A28F6D375E081698906AE
:10359000DFD50BE08169890608D48169890605D4E5
:1035A0008169890602D481698906F3D52021C16128
:1035B0000127042101258269D30503D52B02C361AC
:1035C00029432F466B02560506D41A420AD1002F12
:1035D0000BD1002005B0F0BDAD02C561082529431F
:1035E0001A4202D0C361022211438269920701D5B7
:1035F000002282628269D20703D1826901231343C8
:1036000083614268214B13404360606C08436064EF
:10361000202004994870002008708870012005B0AF
:10362000F0BD810302910390C0030190019F02E06D
:1036300081698906BAD4FEF70FFA411B2068B142AE
:10364000F6D942680499897883693B420BD0029B82
:103650001A4008D1202906D04168029A11434160DE
:10366000FEF7FAF90546206881698906E0D4FEF77D
:10367000F3F9401B1A28F6D3206881692421039F9F
:1036800001258269D30599D49CE7C04600E800FE75
:10369000F0B583B014460D46064601688869284097
:1036A000401B424242410020A24217D11F465A1CF1
:1036B0002BD00190002F30D1FEF7CEF93068816910
:1036C0002940491B4A424A41A2423ED080692840D3
:1036D000401B41424141A142EED0019803B0F0BDF0
:1036E0008A692A40521B53425341A342F6D18A6948
:1036F0002A40521B53425341A342EFD18A692A40C8
:10370000521B53425341A342E8D18A692A40521BBB
:1037100053425341A342E3D0E0E70898029006E009
:1037200080692840401B41424141A142D5D1FEF76A
:1037300093F90299411A3068B942F1D98169294057
:10374000491B4A424A41A242EAD130464030716C9C
:1037500020221143716442700021017081700120A8
:1037600003B0F0BDF0B581B0054600688069002463
:10377000800622D416460F46002903D129E080692D
:1037800080061AD4284639463246FFF7C3FE002881
:1037900027D1FEF761F9811B2868B942EFD9816909
:1037A0008906ECD428464030696C202211436964B4
:1037B00042700021017081700124204601B0F0BDEB
:1037C000FEF74AF9286881698906EBD58069800689
:1037D000F3D40024284621463246FFF79BFE0028FA
:1037E000EED00124204601B0F0BDF0B581B0054611
:1037F000006880690024800716D416460F46481CCE
:1038000019D0002F26D10024284621463246FFF742
:1038100081FE002838D1FEF71FF9286881698907E1
:1038200028D580698007EED5204601B0F0BD286814
:1038300080698007F8D40024E14328463246FFF728
:1038400069FE0028F3D00124204601B0F0BD806954
:103850008007E9D4284639463246FFF75BFE002848
:1038600012D1FEF7F9F8811B2868B942EFD98169B6
:103870008907ECD428464030696C202211436964E2
:1038800042700021017081700124204601B0F0BD1A
:10389000FEE780B5FEF74CFC80BD7047704780B5F1
:1038A000FEF7C6FB80BD000070B59EB010AC38219D
:1038B0002046FCF796FE00250F950E950D950C956C
:1038C0000B9501A82821FCF78CFE0326F0021C4969
:1038D0000A68824301201390C302D2180A601C9523
:1038E0001B9502211A9110221492109180051D90AF
:1038F0002046FEF79FFE002803D0EFF3108072B63B
:10390000FEE70F950E950D950C960F200B900BA8CA
:103910000121FEF737FD002803D0EFF3108072B6C7
:10392000FEE7079505950A20019001A8FEF70EFC19
:10393000002803D0EFF3108072B6FEE71EB070BD12
:10394000007000407047000080B50248FFF723FA7E
:1039500080BDC0463005002080B50248FFF71BFA45
:1039600080BDC04670050020B0B5416ACA070CD1C1
:103970008A0714D44A071CD40A0724D4CA062CD4B4
:103980008A0634D44A063CD44CE00122520403682F
:103990005C689443826A22435A608A07EAD501220E
:1039A000120403685C689443C26A22435A604A075F
:1039B000E2D50122920403685C689443026B2243BF
:1039C0005A600A07DAD50122D20303685C6894437F
:1039D000426B22435A60CA06D2D501221203036801
:1039E0009C689443826B22439A608A06CAD501225E
:1039F000520303689C689443C26B22439A604A0650
:103A000010D501221305026854689C43056C2C43B1
:103A100054609D4206D103235B0554689C43436C6C
:103A200023435360090607D50121C904026853687E
:103A30008B43806C18435060B0BD0000F0B583B07C
:103A40000446064678360025F560FEF705F803467D
:103A500020680168090721D502952B4800900125AF
:103A60006905002220461F4600F0CEF9002812D03A
:103A7000EFF3108085F3108821680A6880239A4349
:103A80000A6080F31088032020227C21029D62506E
:103A9000357003B0F0BD20683B46029D00684007CA
:103AA00026D5194800900127B9050022204600F0CC
:103AB000ABF900281CD0EFF3108087F310880921A0
:103AC0004901226813688B43136080F31088EFF379
:103AD000108087F3108821688A68BA438A6080F36F
:103AE00010880320202280216250357003B0F0BD81
:103AF0002020E067B060256664212A46284662508F
:103B0000357003B0F0BDC046FFFFFF0180B5806A8D
:103B10000146523100220A8152214252FFF7DFF959
:103B200080BD0000F0B581B0044601680868764A9F
:103B30000240A06823690343606918431043E269A7
:103B400010430860032630034B688343E068184342
:103B50004860A5696D4B994202D0206A284300E075
:103B600028460B252D028F68AF4307438F606848B6
:103B7000814214DD0027674881421FD06648814298
:103B80001CD06648814243D16648C06C8007000F54
:103B900066A52F580125E803994213D13DE06048FE
:103BA000814205D0994233D15E48C06C000A01E0E1
:103BB0005C48C06C0C2505405B4847590125E8036B
:103BC00099422AD0824212D1082F00D996E0C046ED
:103BD0007F443F797F00BF44043C469152919191CC
:103BE0007300FEF7D3FC002800D069E085E0082FC1
:103BF00000D983E07F443F797F00BF44042F3A7FA0
:103C0000457F7F7F7200FEF7C1FC002869D174E018
:103C100010270125E8039942D4D1082F6ED8C04659
:103C20007F443F797F00BF44046909690F6969696E
:103C30003500FEF7ABFC00282CD15EE03948006867
:103C4000C00626D53E4825E0FEF7BAFC002821D163
:103C500053E0FEF7A5FC002832D14EE0FEF7A0FCB1
:103C600000283ED149E02F480068C00627D53448D7
:103C700026E02C480068C00632D5314831E0FEF716
:103C80009FFC00281CD138E0FEF79AFC002828D1C0
:103C900033E02A4862685643B0422FD3110388426A
:103CA0002CD8010E56080002002380195941FCF758
:103CB00002FB25494118254A91421CD31EE01F48AA
:103CC000400061684A08101801F06FFB0246103A84
:103CD0001C498A4212D201400007400F08430AE003
:103CE000164861684A08101801F05FFB0146103958
:103CF000144A914202D22168C86000250020A066C3
:103D0000E066284601B0F0BDF369FFEF00480040CF
:103D1000FF4B0040004C0040005000400038014084
:103D20000044004000100240BC6100080100000097
:103D30000400000002000000080000000024F4005D
:103D400000093D00F0FF000000FDFFFF00FD0F0037
:103D5000B0B5C16F212910D15221415A00290DD08F
:103D600001465231C26C1388104C1C4003689C629F
:103D7000921CC2640888401E0880B0BDEFF3108119
:103D8000012282F3108803681C688025AC431C6004
:103D900081F31088EFF3108182F3108800680268C5
:103DA00040231343036081F31088B0BDFF0100007E
:103DB000B0B5C16F21290ED15221415A00290BD033
:103DC000014652310268C36C1C7894625A1CC2646A
:103DD0000888401E0880B0BDEFF31081012282F3F5
:103DE000108803681C688025AC431C6081F3108830
:103DF000EFF3108182F310880068026840231343B8
:103E0000036081F31088B0BDF0B587B00693154606
:103E10000F460368D9693940C91B4A424A41002606
:103E2000AA4220D10C9C002C20D0611C23D1D9693E
:103E30003940C91B4A424A41AA4214D1D969394082
:103E4000C91B4A424A41AA420DD1D9693940C91B0E
:103E50004A424A41AA4206D1D9693940C91B4A425D
:103E60004A41AA42E3D0304607B0F0BDFDF7F4FD69
:103E7000032007B0F0BD029601467831039101217D
:103E80000191C9020491059006E0C9693940CA1B35
:103E900051425141A9424ED1FDF7DEFD0699411A2A
:103EA0000323A14244D8059801680A685207ECD55B
:103EB000CA69120742D4CA692646049C2242344683
:103EC000E3D01F4604980862EFF31082012181F3CA
:103ED000108809235B010598046825689D432560C7
:103EE00082F31088EFF3108281F31088059803683D
:103EF0009C688C439C60059882F31088026E012AAE
:103F00000BD1EFF3108281F3108801680B68102445
:103F1000A3430B60059882F310882021039B9960CE
:103F20000022026682661A70D960384607B0F0BD7A
:103F3000184607B0F0BD029807B0F0BD08250D6225
:103F4000EFF31081019880F3108809225201059B3C
:103F50001B681C6894431C6081F31088EFF3108188
:103F600080F31088059A1268936883439360059BD9
:103F700081F31088196E01290CD1EFF31081012211
:103F800082F310881A6813681024A3431360059BFA
:103F900081F310882021039A9160002119669966A7
:103FA0001170D56007B0F0BD80B50248FEF798FFEC
:103FB00080BDC046B0050020F0B589B00546828CB2
:103FC00001261046B0430027762811D107970691A5
:103FD000A86A9A4C2F4632370097019602945104F2
:103FE000090CD0223346FDF7D3FD002803D0079FEC
:103FF000384609B0F0BD3878602802D0582800D083
:10400000DCE0A86AA98C08AAB62313708C4B009236
:10401000019602934904090CE0223346FDF7C4FEE1
:10402000002800D0CAE0A86AA98C0294019608AAC8
:1040300000924904090CF3223346FDF7A9FD00283C
:10404000F1D108A80078C007EDD1A86AA98C029424
:104050000226019608AA00924904090C882201232D
:10406000FDF796FD002800D0A8E008982880A86AEF
:10407000A98C0294019608AA00924904090C8A228C
:104080000123FDF785FD002800D097E0089868809F
:10409000A86AA98C0294019608AA00924904090C06
:1040A0008C220123FDF774FD002800D086E00898DB
:1040B000A880A86AA98C0294019608AA00924904D3
:1040C000090C8E220123FDF763FD002876D10898A4
:1040D000E880A86AA98C0294019608AA0092490473
:1040E000090C90220123FDF753FD002866D10898A2
:1040F0002881A86AA98C0294019608AA0092490412
:10410000090C922201263346FDF742FD002855D1C5
:1041100008986881A96AA88C2B460C33942200F079
:1041200001FD00284AD0A96AA88C2B460E3396229E
:1041300000F0F8FC002841D0A96AA88C2B46103367
:10414000982200F0EFFC002838D0A96AA88C2B46F2
:1041500012339A2200F0E6FC00282FD0A96AA88C1E
:104160002B4614339C2200F0DDFC002826D0A96ADF
:10417000A88C2B4616339E2200F0D4FC00281DD0BC
:104180003878602804D1284600F04CFC002815D06F
:10419000069841794901407882000A43A86AA98CAF
:1041A00008AB1A7000930196254A02924904090C43
:1041B000F5223346FDF7F8FD002803D0079F384667
:1041C00009B0F0BD06980478012C02D100240698AD
:1041D00004700698C178059180780490387860283A
:1041E000079F12D1A86AAA8C0699097908AB1970A1
:1041F00000930196124902915104090CF2223346B0
:10420000FDF7D2FD002800D0F2E6059840010499A0
:10421000890001432143A86AAA8C08AB1970009356
:104220000196074902915104090CF4223346FDF727
:10423000BBFD47424741384609B0F0BD8813000036
:1042400010270000032141710171C17081700022AB
:104250004270017070470000F0B593B00F920E46A7
:10426000044607462237387C602801D11D4603E00A
:104270000025002B00D01D60A06AA18C8B4A029201
:10428000002D01D0082200E00622019211AA00921E
:104290004904090CF72201231093FDF779FC01462C
:1042A000002803D04842484113B0F0BD0E910C974E
:1042B0000D950220205E11ABD97809031A791201FD
:1042C0005118CA0809935B79DB099A1823885D00A5
:1042D000521B4243D0120422A25E0909C91A494363
:1042E000090B5143891309180520484380300012F7
:1042F00030606F480A910E18F7170820205EC1172A
:1043000032463B46FBF76CFF0546000D09030818D3
:104310000B9030463946324607973B46FBF760FF25
:1043200007460A20225ED317089738460F46FBF748
:1043300057FF0A06000A801809122A0310180B9A60
:104340005141109AD2030B928918E28800252B461E
:10435000FBF746FFCB1749100846184361D0099870
:10436000827804924278059205780E200691225EAA
:104370000993D31730460799FBF732FFC20B490464
:1043800089184004049A12092B039A18059B1B01F3
:104390009A18109B1B059A1A5508D207161A8D41B8
:1043A0001020225ED31708983946FBF719FF0C221C
:1043B000A25ED2008918301A8D413E4A0023294658
:1043C000FBF70EFF069A099BFBF722FF06460F46F6
:1043D000C804710B0818791302460B46FBF700FF5F
:1043E0001622A25ED317FBF7FBFECA01400E80180F
:1043F0004D16801909907D411420225ED317304656
:104400003946FBF7EDFE4A03C00C8018C90C099A27
:10441000101869410906000A40181221615E09015D
:1044200045180F9805600D9D002D0C9E0E9900D12A
:1044300038E72020205E20490A9A5118484311AAE3
:1044400093799B05D2799203D218E38B1B05D21A7C
:10445000101A109FBA038018C0130022B2564A43A4
:104460009212237F4B43D9120B9BC91851438912D7
:104470007A0589181A22A25E4A43790351188913D2
:104480004143C8134043C009227E42431009081A21
:10449000C117884319210906884200D30846000B3A
:1044A00028600E994842484113B0F0BD88130000BF
:1044B000000CFEFF350C000000D4FEFFF0B583B009
:1044C0001C4616460F466B46002C00D1234602A917
:1044D00001AAFFF7C1FE0546002818D00298FCF794
:1044E00081FA0C49FCF7AAF938600198FCF782FAC6
:1044F0007721C90501F068F93060002C07D00098D9
:10450000FCF778FA7521C90501F05EF920602846AC
:1045100003B0F0BD0000C842AEB0FDF793FDFFF759
:10452000C3F9E94801688024214301600168214002
:104530000A910A990168012529430160016829400F
:104540000A910A9901680222114301600168DF485B
:104550000023036211400A910A99DD49DD4A026095
:10456000021D2AC2036143618361C361FDF7BCFA86
:10457000002803D0EFF3108072B6FEE7EE4800216A
:10458000FDF770FA002803D0EFF3108072B6FEE753
:104590000595E94D002628463146FDF784FA0028A6
:1045A00003D0EFF3108072B6FEE7E4480C21E44A32
:1045B00006624662E1235B024CC006604660816091
:1045C000C66006610C38FEF781FE002803D0EFF3C9
:1045D000108072B6FEE7DB484461DB4ADB4FDC4902
:1045E00082C0066042600B960A960838FEF72EFBE2
:1045F000002803D0EFF3108072B6FEE70996D14889
:104600000AA9FEF7F5FA002803D0EFF3108072B67E
:10461000FEE7D0484461D0497D22120182C0099E44
:10462000066042600B960A960838FEF70FFB0028DA
:1046300003D0EFF3108072B6FEE7C6480AA9FEF772
:10464000D7FA002803D0EFF3108072B6FEE7BD481A
:10465000FEF76EFBBF48FEF76BFB284600F08AFAB8
:10466000BE4FBD643C4620347620A0843D461835BC
:104670002846FFF7E7FD03207877B876388307945C
:1046800020462946FFF798FC002800D124E1FDF7D9
:10469000E3F9AD494018069034462CE02AA804738B
:1046A000DB482C90DB482B90DB482A903046FCF707
:1046B0009BF8064608913846FCF796F807460C46E4
:1046C0002846FCF791F802460B462AA8009608995E
:1046D00001910297039404900AAC2046D049FBF75D
:1046E00073FE2046FBF734FF82B294482146FEF762
:1046F000CBFE099C994FFDF7AFF905467869281A5A
:104700000A281DD37D613A460832002107980B46DE
:10471000FFF7D4FE002813D0B868A549FCF78EF83F
:104720000646B8607868A34901F04EF8074630465F
:10473000A14901F049F83946884F00F0ABFF786095
:10474000B878002819D10698854214D20025284649
:1047500000F004FA1421284600F0EEFB8A4806C84F
:10476000012396A000F002FE734800F0EBFBB8783E
:10477000002802D1BFE70598B8703878002874D0B7
:104780003C707D6891484168284600F037FF00285A
:1047900001D18E4845603969284600F045FF002860
:1047A00000D13D613C460027384600F0D7F96068EB
:1047B000FCF71AF802460B460AAE304684A1FBF716
:1047C00003FE3846394600F0B7FB6F4C06CC083C78
:1047D000254601243046234600F0C8FD7B4840684A
:1047E000FCF702F802460B4630467DA1FBF7ECFDD4
:1047F0000A21384600F0A0FB06CD3046234600F0E3
:10480000B5FD564D2869FBF7EFFF02460B463046D3
:1048100077A1FBF7D9FD1421384600F08DFB5A48EB
:1048200006C830460894234600F0A0FD1E213846F5
:1048300000F082FB6F683846714900F0F5FE0028F1
:10484000704E00D1704E3846704900F0D7FE0028F7
:10485000099C00D16C4E4C4806C83046089B00F0BD
:1048600085FD354800F06EFB3C4F7878002800D17C
:1048700041E77C707D68554806682846314600F05F
:10488000BDFE002802D1514805602E46FF6828462B
:10489000394600F0C9FE002802D13048C5602F46D5
:1048A00028465A4900F0CDFE002800D0F6E62846FA
:1048B000534900F0AEFE002800D0EFE62AA80472AB
:1048C00053482B905548F0E62C100240DC040020A1
:1048D0001C1340000054004021A00AAD2946374671
:1048E0001CC81CC11CC81CC15CC85CC12846FBF7A5
:1048F0002FFEFB4382B211482946FEF757FD38468A
:1049000000F02CF90A21384600F016FB1E4C06CCAC
:104910001EA001252B46083C00F028FD1921384631
:1049200000F00AFB06CC1DA02B4600F01FFD02483C
:1049300000F008FBFEE7C046DC040020B0050020C4
:104940000044004030050020B80B0000C05D0000AE
:104950000010004070050020001400408800002076
:104960004B6C616964613A20424D50323830206EA0
:1049700065706176796B6F20696E6963696A756FBE
:1049800074690D0A0000000010000020424D5032F2
:104990003830206B6C61696461000000506174699B
:1049A0006B72696E6B206A756E6774690000000037
:1049B00000007A449E371D3FC390C53E557A736907
:1049C0006B7261756E612E2E2E00000000000020BB
:1049D000536C3A20252E3366206B50610000000096
:1049E0004D696E3A20252E3366206B506100000021
:1049F0004D61783A20252E3366206B50610000000F
:104A00000000DC4204620008F46100080000B442C7
:104A1000414E47454F4620524F555420494E205253
:104A2000CC610008F0B58BB00446806AA18C4A4E78
:104A300001232246183200AD4CC54904090CA122BD
:104A4000FDF7A6F80025002802D028460BB0F0BDDF
:104A5000A06AA18C02960227019708AA0092490435
:104A6000090CE12201263346FDF792F80028ECD12B
:104A7000079708986083A06AA18C22461C32009296
:104A80000196354F02974904090CE3223346FDF79E
:104A90007FF80028D9D1A06AA18C0297079E0196C1
:104AA00009AA00924904090CE4220123FDF770F8D9
:104AB0000028CAD109A80178069140780590A06A1B
:104AC000A18C029701960AAA00924904090CE522DA
:104AD00001263346FDF75CF80028B6D10AA8017814
:104AE000079140780490A06AA18C2246223200AB44
:104AF000C4C34904090CE7223346FDF749F80028EE
:104B0000A3D10F2005990140069800014018E083C9
:104B10000498000207994018000920843546284669
:104B20000BB0F0BDB0B584B01C460D460A490291E9
:104B30000221019103A900914004010C01232846A0
:104B4000FDF726F8002801D1039921804142414117
:104B5000084604B0B0BDC0468813000080B50028E8
:104B600001D1024600E0FF2201208102F148FBF75B
:104B700011FD80BDF0B5A3B007466420FCF794FE9C
:104B800022A8AE2101700A24012600900196029409
:104B9000782120910025384621972A461F953346D3
:104BA000FDF702F91D9022A82021199101700090B3
:104BB000019602941E943846209F39462A46334671
:104BC000FDF7F2F81C9022A81021169101700090B8
:104BD00001960294219C204639462A463346FDF729
:104BE000E3F81B9022A8B0210170009001961E9D51
:104BF0000295204639461F9A3346FDF7D5F81A909C
:104C000022A8C821017000900196029520463946DD
:104C10001F9D2A463346FDF7C7F8189022A8057055
:104C2000009001961E9C0294219839462A463346EC
:104C3000FDF7BAF8179022A8169901700090019616
:104C40000294219839462A463346FDF7ADF816906E
:104C500022A84021017000900196029421983946C3
:104C60002A462C463346FDF79FF8159022A881214D
:104C70000170009001961E980290219839463D4699
:104C800022463346FDF790F8149022A8FF210170C8
:104C9000009001961E9C0294219F384629461F9D34
:104CA0002A463346FDF780F8139022A8A12101700F
:104CB0000090019602943846209F39462A46334692
:104CC000FDF772F8129022A8A621017000900196BB
:104CD0000294219839463C462A463346FDF764F84B
:104CE000119022A8A8210170009001961E980290B0
:104CF000219F384621462A463346FDF755F8109045
:104D000022A83F210170009001961E9C0294384613
:104D1000209F39462A463346FDF746F80F9022A8D1
:104D2000A4210170009001960294219839462A46E8
:104D30003346FDF739F80E9022A8D3210170009078
:104D400001960294219F384620992A463346FDF762
:104D50002BF80D9022A82A46057000900196029427
:104D600038463D46209F39463346FDF71DF80C90E6
:104D700022A8D52101700090019602942846394658
:104D80003D461F9A3346FDF70FF80B9022A8F021FD
:104D90000170009001960294219F384629461F9D7C
:104DA0002A463346FDF700F80A9022A8D92101705F
:104DB0000090019602943846209F39462A46334691
:104DC000FCF7F2FF099022A82221017000900196C1
:104DD0000294219839462A463346FCF7E5FF0890AD
:104DE00022A8DA210170009001960294219F384692
:104DF000209C21462A463346FCF7D6FF079022A87E
:104E000012210170009001961E98029038462746A4
:104E100021462A463346FCF7C7FF069022A8DB212D
:104E20000170009001961E9C0294219839463D46DF
:104E30001F9A3346FCF7B8FF059022A81999017014
:104E4000009001960294219F384629461F9A3346C6
:104E5000FCF7AAFF199022A88D21017000900196FD
:104E60002546029438463C46209F39461F9A3346D1
:104E7000FCF79AFF049022A814210170009001967B
:104E8000029520461F9C394622463346FCF78CFF8C
:104E900022A9AF220A700091019602951D991C9AD1
:104EA00051181B9A89181A9A8918189A8918179AEA
:104EB0008918169A8918159A8918149A8918139AB4
:104EC0008918129A8918119A8918109A89180F9AB4
:104ED00089180E9A89180D9A89180C9A89180B9AB4
:104EE00089180A9A8918099A8918089A8918079AB4
:104EF0008918069A8918059A8918199A8918049A9E
:104F000089180F1821982099254622463346FCF728
:104F10004BFFC7420BD1012081022D48FBF761FBFB
:104F2000219800F00FF806482E46858045803046CF
:104F300023B0F0BDDC000020014A91805080704712
:104F400080000020F0B58BB007900025204F03951E
:104F50000597B020284308A908700A20069001266A
:104F600000910196029078210491079C2046039FAE
:104F70003A463346FCF718FF09A8077000900196DF
:104F8000069802902046049C21463A463346FCF798
:104F90000BFF0AA81021017000900196069802905C
:104FA000079821463A46059F3346FCF7FDFE6420EC
:104FB00080210097019102904022079821463346B4
:104FC000FCF7F2FE80376D1C082DC1D10BB0F0BD8F
:104FD000DC000020F0B594B00F93E24B5C88CDB2BA
:104FE000119405952D1900247F2D00D9B7E19E88D5
:104FF0000B0ADFB20896BB193F2B00D9AFE1009531
:105000000190002F00D1A6E10B460F99481E814167
:105010000991D4480078C0B2414241410E910598AF
:10502000002800D197E13C4609980E994840099024
:105030000198203878434000101803900320034063
:1050400006930598C01A0B9001200290C503002614
:1050500004970A9506E00C980140B954761CA642C4
:1050600000D178E108983118CAB23F2AF6D8720008
:105070000398805A13900A011F23D8011040129000
:1050800007220A4002989040FF210D9041400C9168
:1050900005980428079604D2002306980028DDD03E
:1050A000C7E0002108E00C98024032550A9D491CD7
:1050B0000B98814200D1B5E00B461198411880222F
:1050C0000E4616402F46DF40CCB2139807420CD054
:1050D000002E1ED112980443A348065D0F980E9F20
:1050E00087420ED10D9806430DE0002E11D1129883
:1050F00004439D4F3E5D0998002807D00D98064354
:1051000006E00C9806409848065502E00C980640C8
:105110003E5510935F1C11983E182B462846F840C8
:10512000F4B21640139D28420DD0002E1D461FD10B
:10513000129804438C4B1E5D0F980E9D85420FD133
:105140000D9806430EE0002E1D4611D1129804431F
:10515000854B1E5D0998002807D00D98064306E090
:105160000C9806401E550A9D02E00C9806401E55FC
:105170008E1C7F1C2B462846F840F4B21640139D27
:1051800028420ED0002E1D46109B22D112980443B7
:105190007548065D0F980E9D854210D10D98064307
:1051A0000FE0002E1D46109B13D1129804436E4849
:1051B000065D0998002808D00D98064307E00C9872
:1051C0000640694806550A9D03E00C98064066486B
:1051D0000655C81C0240791C2E46CE40C4B2139816
:1051E00006420ED0002A00D061E7129804435E4EBA
:1051F000325D0F980E9D854200D054E70D98024312
:1052000053E7002A00D052E712980443564E325D0D
:105210000998002802D00D98024301E00C98024042
:10522000325544E71B1D049C079E0698002800D1B8
:1052300014E711981A18802016460746064029469A
:105240002846D840D4B2139D28420ED0002E0D46D9
:10525000394620D112980443434F3E5D0F980E9D6E
:10526000854210D10D9806430FE0002E0D463946B9
:1052700011D1129804433C4F3E5D0998002807D095
:105280000D98064306E00C9806403E550A9D02E044
:105290000C9806403E5506980128049C079E00D1B4
:1052A000DCE6541CE7B20C4013989840139040047D
:1052B0000DD5002C049C1CD1129807432A48C35DCD
:1052C0000F980E9D85420FD10D9803430EE0002CE0
:1052D000049C0ED1129807432348C35D0998002807
:1052E0002DD00D9803432CE00C9803401E48C35565
:1052F0000A9D0698022800D1B0E6901C0140C2B277
:10530000139880040ED5002900D0A7E61298024316
:10531000154FB95C0F980E9B834200D09BE60D9809
:1053200001439AE6002900D098E6129802430E4BFA
:10533000995C099800280AD00D98014309E00C985F
:1053400003400948C35506980228D6D186E60C9832
:105350000140995482E6034800994180019C20460F
:1053600014B0F0BD80000020DC000020F0B581B05A
:105370000E46074600780021002813D01C4615462B
:105380000091C0B231462A462346FFF723FE01466C
:105390003878814207D178787F1C0028F1D10098B5
:1053A00001B0F0BD084601B0F0BD43088B421AD3EE
:1053B000002203098B4279D3030A8B425ED3030B8D
:1053C0008B4242D3030C8B4227D30902FF2212BA2D
:1053D000030C8B4202D31212090203D0030B8B423F
:1053E00033D31AE0D3E0411A8041401C7047034692
:1053F0000B4371D443088B42F5D3002203098B423F
:1054000054D3030A8B4239D3030B8B421DD3030CB5
:105410008B4202D394466EE0090AC30B8B4201D340
:10542000CB03C01A5241830B8B4201D38B03C01AAA
:105430005241430B8B4201D34B03C01A5241030B21
:105440008B4201D30B03C01A5241C30A8B4201D3D2
:10545000CB02C01A5241830A8B4201D38B02C01A7D
:105460005241430A8B4201D34B02C01A5241030AF4
:105470008B4201D30B02C01A5241CDD2C3098B42D9
:1054800001D3CB01C01A524183098B4201D38B0156
:10549000C01A524143098B4201D34B01C01A5241F9
:1054A00003098B4201D30B01C01A5241C3088B423E
:1054B00001D3CB00C01A524183088B4201D38B0029
:1054C000C01A524143088B4201D34B00C01A5241CB
:1054D000411A524110007047CA0F00D049420310D0
:1054E00000D34042534000229C4603098B422DD3F7
:1054F000030A8B4212D38901FC2212BA030A8B429F
:105500000CD3890192118B4208D3890192118B42ED
:1055100004D3890137D0921100E08909C3098B4275
:1055200001D3CB01C01A524183098B4201D38B01B5
:10553000C01A524143098B4201D34B01C01A524158
:1055400003098B4201D30B01C01A5241C3088B429D
:1055500001D3CB00C01A524183088B4201D38B0088
:10556000C01A5241D9D243088B4201D34B00C01A12
:105570005241411A00D201465241104663465B1027
:1055800000D34042704763465B1000D3404201B5F0
:105590000021004201D0C9430846C046C04602BDB2
:1055A000F8B5040C8BB2264682B25E4310465843CF
:1055B0000D0C370C360400218019164679416E43D4
:1055C000370C36048019264679416E438919F8BD97
:1055D0004900CA020243100000D004204A0D01D045
:1055E00001221043044A490D914201D1022108438E
:1055F000012800D105207047FF07000010B500F01A
:105600008FF8EFF30080800001D5012010BD00204D
:1056100010BD10B500F084F8EFF300804000800F5B
:10562000012800D0002010BD10B500F0A3F8EFF362
:1056300000804000800F012801D0012010BD002013
:1056400010BD10B500F096F8EFF30080800001D493
:10565000012010BD002010BD30380A2801D20120E1
:10566000704700207047000010B500290AD0087864
:10567000002807D005487844FCF722F8002801D01C
:10568000002010BD0248784410BD0000BA0B000095
:10569000B20B000070B50125ED0704004C4020D48A
:1056A000441A01D2001B0919C60D4B00F2B2FF2AA1
:1056B00029D01B0E2CD000020C0228432C43D31AF5
:1056C000DC40051910D2280A02D3401C6D0611D007
:1056D000761EF6058019FF2A00DA70BDC00DC005E0
:1056E00070BD694000F0CEF801200543C541521C51
:1056F000761CE8E764089C40C90161408900E7D155
:105700000124A043E4E71B0E440200D0034870BD0F
:10571000002AFCD1C00FC00770BD00BF0000C07FD1
:105720000123DB0502000A430DD4DA4203D49A4276
:1057300007D488427047D84214D4D94212D4884240
:10574000704780427047DA4203D59A42F9D58142C8
:1057500070475B004200DA4204D24A00DA4201D2CA
:105760008142704710B5024AFBF74CFF10BD00BFE5
:10577000090013040123DB0502000A430DD4DA42B9
:1057800003D49A4207D488427047D84214D4D942ED
:1057900012D48842704780427047DA4203D59A4259
:1057A000F9D5814270475B004200DA4204D24A00D8
:1057B000DA4201D28142704710B5024AFBF722FF5C
:1057C00010BD00BF0900160470B5420064414B00D3
:1057D0005C41120E39D01B0E38D0FF2A3CD0FF2B73
:1057E0003AD0D2187F3A40024902400A490A451885
:1057F000ED0106004E43000A090A48430104731AEA
:105800004019190C4318990F04D05B08012149076E
:105810005B1A521CD80904D3401CF50301D19D0624
:1058200007D0FF2A08D2D50506D0E4072043401947
:1058300070BD0125A843F4E7002A01DCE00770BD34
:105840002402FF202043C00570BD1B0EFF2A03D099
:10585000FF2B01D0E00770BDFF2636064500B5429C
:1058600006D84D00B54203D8D218FF2A00D0E7E78A
:10587000004870BD0000C07F70B50125ED07040031
:105880004C4022D4441A02D26C40001B0919C60DA8
:105890004B00F2B2FF2A4BD01B0E50D000020C027C
:1058A000A8432C43D31ADC40051B05D5AD0019D302
:1058B0006D08761E521E37D0F605280A01D28019CF
:1058C00070BD70416D0603D070BD6940FFF7E8FE02
:1058D0009C4009026140490001D0401E70BD012476
:1058E000A04370BD6D081DD001202B0C01D12D04EB
:1058F00010302B0E01D12D0208302B0F01D12D01BC
:10590000001DAB0F01D1AD00801CEB0F01D16D006C
:10591000401C361A121A6D00680AF5054019012A52
:1059200002DB70BD002070BDC036300AC00770BDFC
:105930001B0E440201D1FF2B00D1024870BD002A8A
:10594000F0D070BD0000C07F03B4024878448446A4
:1059500003BC604749B2FFFF8182838485868788C4
:10596000898B8C8D8E8F919293959697999A9C9D09
:105970009FA0A2A3A5A7A8AAACAEB0B2B3B5B7B971
:10598000BCBEC0C2C5C7C9CCCED1D4D7D9DCDFE23A
:10599000E6E9ECF0F3F7FAFE02400000000000A098
:1059A0000000000005400000000000C800000000EA
:1059B0000C4000000000409C000000001940000066
:1059C0000020BCBE0000000034400000BFC91B8E98
:1059D00000000004B5400000504BCFD06607E2CF76
:1059E000010000006C4100003E8251AADFEEA734A6
:1059F00001000000D9420000DCB5A0E23A301F9758
:105A0000FFFFFFFFB4450000FD25A0C8E9A3C14F7B
:105A1000FFFFFFFFFF3F00000000008000000000CC
:105A2000FF3F0000000000800000000000000000B8
:105A3000000000000102030406070809000000003E
:105A4000010203040000000000000000000000004C
:105A50000000000000000000001000100010001006
:105A600000100010000000100000000000280028B6
:105A700000280000000000000000000000000000FE
:105A800000240024007C00240048007C00480048DA
:105A9000000000000038005400500038001400548A
:105AA000005400380010000000200054005800305E
:105AB0000028005400140008000000000010002816
:105AC00000280010003400480048003400000000A6
:105AD0000010001000100000000000000000000096
